:020000022000DC
:106000000000042085ED0200C5ED0200C7ED02008E
:10601000C9ED0200CBED0200CDED02000000000052
:1060200000000000000000000000000001ED020080
:10603000D1ED02000000000021ED0200D5ED0200CC
:106040002DEF0200A1AE0200D7ED0200D7ED020055
:10605000D7ED0200D7ED0200D7ED0200D7ED020028
:10606000D7ED0200D7ED0200D7ED0200D7ED020018
:10607000D7ED0200D7ED0200D7ED0200D7ED020008
:10608000D7ED02005DEA0200D7ED0200D7ED020075
:10609000D7ED0200D7ED0200D7ED0200D7ED0200E8
:1060A000D7ED0200D7ED0200D7ED020019CC0200B7
:1060B000D7ED0200D7ED0200000000000000000054
:1060C000D7ED0200D7ED0200D7ED0200D7ED0200B8
:1060D000D7ED0200D7ED0200D7ED0200D96C020027
:1060E000D7ED0200D7ED0200D7ED0200000000005E
:1060F00000000000D7ED020000000000D7ED020014
:10610000000000000000000000000000000000008F
:10611000000000000000000000000000000000007F
:10612000000000000000000000000000000000006F
:10613000000000000000000000000000000000005F
:10614000000000000000000000000000000000004F
:10615000000000000000000000000000000000003F
:10616000000000000000000000000000000000002F
:10617000000000000000000000000000000000001F
:10618000000000000000000000000000000000000F
:1061900000000000000000000000000000000000FF
:1061A00000000000000000000000000000000000EF
:1061B00000000000000000000000000000000000DF
:1061C00000000000000000000000000000000000CF
:1061D00000000000000000000000000000000000BF
:1061E00000000000000000000000000000000000AF
:1061F000000000000000000000000000000000009F
:10620000F1EE103A43F08073E1EE103A704700BFB0
:1062100010B5054C237833B9044B13B10448AFF3E0
:1062200000800123237010BD0863002000000000DF
:106230003036030008B5034B1BB103490348AFF3E5
:10624000008008BD000000000C6300203036030011
:10625000A3F5803A704700BF154B002B08BF114BC8
:106260009D46FFF7F5FF00218B460F461148124A65
:10627000121A0AF0ACFB0C4B002B00D098470B4BCA
:10628000002B00D098470020002104000D000B488F
:1062900009F038FD0AF0FEFB2000290008F0CAFDD5
:1062A00009F036FD000008000000000000000000BA
:1062B0000000042008630020A0810020DD0A030004
:1062C0000146014800F0DCBA4463002038B500F014
:1062D00093F938B105460024E0B2013400F0DEFD48
:1062E000AC42F9D138BD00BF70B592B01D4616461C
:1062F0000C464222002101A80AF069FB412D59D920
:1063000040F60832ADF804208DF8064002228DF8E0
:106310000E408DF82640631C284C8DF807208DF820
:1063200012200A9442F205420824DBB2ADF815208F
:106330008DF82C40224A06924FF411648DF81E30DD
:106340008DF82730ADF82E408DF831301D4CCDF84A
:106350003F40012244F202038DF81C20ADF83B308F
:106360000422402440F224638DF81F208DF8302051
:106370008DF84340ADF82430134C089440F2075296
:1063800040F20943ADF83820ADF80C3001A940F2D5
:106390000123304640F60225422240F20224ADF8A5
:1063A0003350ADF80840ADF810300AF009FC422037
:1063B00012B070BD002012B070BD00BF0705800391
:1063C000200105240705800224020205007EFF2823
:1063D0000AD010B500F010FD044608B1204610BDEB
:1063E00008F044FF204610BD00207047007EFF28C3
:1063F0000ED000B583B00DF1070100F045FD20B1CE
:106400009DF8070003B05DF804FB4FF0FF30F9E79B
:106410004FF0FF30704700BF007EFF280FD000B55F
:1064200083B001220DF1070100F0F2FC20B19DF8CC
:10643000070003B05DF804FB4FF0FF30F9E74FF0C1
:10644000FF307047007EFF2801D000F027BD704765
:10645000007EFF2801D000F081BD0020704700BF02
:10646000F8B50646007EFF281CD017465AB10D46E7
:10647000144600F09BFC2946224680B1307E00F095
:1064800051FD241A01D13846F8BD054408F0EEFE4E
:10649000307E00F08BFC294622460028EED13F1BBF
:1064A0003846F1E70020F8BD70B50368184A5B680C
:1064B00082B093428DF8071021D10546007EFF2857
:1064C00023D000F073FC0DF107060124314622466B
:1064D00088B1287E00F026FD241A02D1012002B0E6
:1064E00070BD064408F0C2FE287E00F05FFC314615
:1064F00022460028EDD1C4F1010002B070BD012296
:106500000DF10701984702B070BD002002B070BDC8
:106510006164020070B592B01D4616460C464222D8
:10652000002101A80AF053FA412D59D940F608324A
:10653000ADF804208DF8064002228DF80E408DF84B
:106540002640631C284C8DF807208DF812200A94F1
:1065500042F205420824DBB2ADF815208DF82C403C
:10656000224A06924FF411648DF81E308DF82730C0
:10657000ADF82E408DF831301D4CCDF83F40012252
:1065800044F202038DF81C20ADF83B300422402475
:1065900040F224638DF81F208DF830208DF84340A1
:1065A000ADF82430134C089440F2075240F20943EE
:1065B000ADF83820ADF80C3001A940F20123304687
:1065C00040F60225422240F20224ADF83350ADF8E5
:1065D0000840ADF810300AF0F3FA422012B070BD56
:1065E000002012B070BD00BF070580032001052404
:1065F0000705800224020205014B1878704700BF8E
:1066000024630020037EFF2B02D1094B1A7802B1CC
:10661000704701464FF0010C10B40276054C83F828
:1066200000C04C6104485DF8044B103100F0C8B85C
:10663000246300203830030044630020007EFF28DC
:1066400008D008B500F0B2FB00B108BD08F00EFE9E
:10665000002008BD0020704701B900B1704700B5A7
:1066600083B0694600F0B8FB009BB3F5966F02D08B
:1066700003B05DF804FB00F045FBF9E7084B094A5D
:1066800010B400214FF47A74C3E901145961FF2159
:1066900002F1280019765DF8044B1A601861704702
:1066A00028630020503003000378002B00F0868020
:1066B000F0B5864600207446844606E00CF1010CD5
:1066C0001EF80C300EEB0C04ABB103F14002D2B259
:1066D000012AF3D9F42BF1D81A060DD40CF1010CD0
:1066E000202808D021F810301EF80C3001300EEBB5
:1066F0000C04002BE9D1F0BD03F0E002C02A3ED02B
:1067000003F0F002E02A55D003F0F802F02AD5D1C8
:1067100003F007060427627802F0C003802BCDD176
:10672000A37803F0C00502F03F02802D42EA8612F2
:10673000C4D103F03F03042F43EA82132DD1E27842
:1067400002F0C004802CB9D102F03F0242EA831368
:10675000A3F58033B3F5801FB0D21E280CF1040CD2
:10676000C9DC42009C0A0A44C3F30903A4F520547F
:10677000A3F5105321F8104002305380A0E762784F
:1067800002F0C004802C03F01F0397D102F03F02F7
:1067900042EA83130CF1020CA2E7A3F50062B2F502
:1067A000784F8BD2A3F55842B2F5006F86D30CF127
:1067B000030C95E703F00F060327ACE71846704774
:1067C000F8B5B0F818214469B0F81A3114449B1A8E
:1067D0000A680E46176890F81C1105469BB22246BF
:1067E0003046B847716840B32218944207D339E065
:1067F000052B24D0237803B31C44A24232D96378FA
:10680000042BF5D1E378002BF4D195F81C3101333A
:1068100085F81C3169B195F850310B2BEAD803F19A
:10682000480645F82610237295F85031013385F853
:10683000503123780021002BDED10020F8BD94F9DF
:106840000230002B08DB95F81E315E1C85F81E61B6
:10685000A6783343A370CDE795F81D315E1C85F80B
:106860001D61F5E7B5F818216B69104480B2A5F8F1
:106870001801588095F81C211A710120F8BD00BF3D
:106880002DE9F04F294B8BB09C460446019100F155
:10689000180B8646BCE80F0005AE35460FC6DCF87F
:1068A000003033800FCDAEE80F002B68AEF800301B
:1068B0000CF1040393E807000DF1080A5746AAE813
:1068C000030003CF13464FF0010884F820304FF443
:1068D0008079174BA061E1612422C4F814B0002133
:1068E000C4F8183184F81E81A4F81C9104F5967040
:1068F0000AF06DF80F4B104AC4F8282140F2094104
:10690000C4E94813042384F8503140F2EF234FF4D4
:10691000E131A380094884F80680FFF773FE0198EF
:1069200000F0DEF940460BB0BDE8F08FB030030058
:10693000090000017C300300883003002863002038
:106940002DE9F043D0F82C0189B00C4630B102316A
:10695000FFF7AAFEC0B209B0BDE8F083684600F0B8
:10696000D3F9074618B3A6464FF00409124CE8467F
:1069700019FB00E90DF1100C18F8013B03F00F06AC
:1069800006F120020DEB020608AA02EB131594E8AB
:106990000F008CE80F000EF1040E16F8103CAEF854
:1069A0000030F14515F8103C2EF8023CE4D1780097
:1069B000C0B209B0BDE8F0839C30030000487047C6
:1069C00044630020014B5869704700BF44630020B6
:1069D00010B5B0B103281CD0154C94F85031834247
:1069E00023D9483004F5AA7154F82000FFF75CFE63
:1069F000C3B201335B0043F440730E48A4F8523134
:106A000010BD0B4CD4F82021A4F854214FF441734D
:106A1000F3E70849A1F5A9742046FFF791FF431C4D
:106A20005B0043F440739BB2E7E7002010BD00BF5A
:106A30004463002096640020024B186800B100698E
:106A4000704700BFD864002010B40948BDF804C0E6
:106A500004684CB164693CB1084611461A46634665
:106A6000A4465DF8044B604700205DF8044B704776
:106A7000D864002010B40948BDF804C004684CB1C3
:106A8000A4693CB1084611461A466346A4465DF81F
:106A9000044B60475DF8044B704700BFD86400208A
:106AA000024B186808B190F860007047DC64002061
:106AB0002DE9F843224C2468002C3FD01E462C239D
:106AC00003FB00430546D3F8209088461746B9F1EA
:106AD000000F2FD048460AF081F80828024628BF48
:106AE00008222C2303FB0544164B656AA46A002D7B
:106AF00008BF1D46144B49464046002C08BF1C46A3
:106B00000AF05EF828460AF069F81028024629467D
:106B100028BF102238460AF053F820460AF05EF8E3
:106B2000042802462146304628BF0422BDE8F84327
:106B30000AF046B8DFF814900822D2E7BDE8F883DF
:106B4000DC640020D0300300E03003007C30030020
:106B500070B50E4E3368B3B12C2505FB00350446E5
:106B60006A691AB19047336885F832002C2202FB1B
:106B7000043393F8320000B170BD03463A2202217B
:106B8000204600F081FF002070BD00BFDC640020C3
:106B9000054B1B683BB14FF02C0C0CFB0033D86A43
:106BA0001B8E086013807047DC64002008B520222B
:106BB0000023052100F068FF4FF0FF3008BD00BF43
:106BC00010B4094C24685CB18446084611461A4644
:106BD0002C2303FB0C44E36913B15DF8044B184705
:106BE00001205DF8044B7047DC6400200A4A10B4B1
:106BF0001468019A54B18446084619462C2303FBB5
:106C00000C44A36813B15DF8044B18474FF0FF30F4
:106C10005DF8044B704700BFDC6400200A4A10B4E2
:106C20001468019A54B18446084619462C2303FB84
:106C30000C44E36813B15DF8044B18474FF0FF3084
:106C40005DF8044B704700BFDC640020044B1B68F8
:106C50002BB12C2202FB00331B6903B1184770478C
:106C6000DC640020054B1B682BB12C2202FB003397
:106C70009B6903B118470120704700BFDC64002006
:106C800003F066BD00B5124B402283B083F8272382
:106C900003F056FF4FF080430024D3F838548DF8AA
:106CA0000040684608F006F90A4B019301A808F075
:106CB00029F908F033F9EB0705D400214FF0FF3034
:106CC00001F092FFF9E7204603F042FDF5E700BF2F
:106CD00000E100E0816C0200002003F00BBA00BF6D
:106CE00000B5002383B00322CDE900230349044803
:106CF000C82206F0C3FF03B05DF804FBE4300300D4
:106D0000856C020008F0B4BB4FF0805103464A6E18
:106D100012BA02600A6E12BA08205A60704700BFA9
:106D200000487047EC30030070B51E4D2B6893B1DE
:106D3000012915D11478C4F34114012C94460CD0C8
:106D4000022C08D15278012A0CD0022A08D1BCF8B2
:106D50000430072B1FD0002070BD5278222A0AD0A1
:106D6000012070BDDA69002AF5D0BDE870401378C3
:106D7000614602F07DBDBCF80220003A18BF012236
:106D80001A76614602F05CFD2A68136A002BE7D090
:106D9000107E9847E4E7044ABDE8704013896146D5
:106DA00002F066BDE06400200060002010B50446DB
:106DB00001F078FE08B9002010BD01F07BFE00282C
:106DC000F9D1044B4FF4567202FB0433187900F0EA
:106DD000010010BDE4640020064B4FF4567202FB24
:106DE0000030D0F806300B604389027B8A718B80BB
:106DF000704700BFE464002008B5044B4FF456729E
:106E000002FB003001F028FC08BD00BFF464002044
:106E10004FF456732DE9F04103FB00F7194E07F1CB
:106E20001004344492B2204601F042FC054620464C
:106E300001F02CFC3F2802D82846BDE8F08106EB83
:106E40000708002098F8031002F068FC0028F3D02F
:106E5000204601F01BFC3F280BD907F5367298F845
:106E6000031040233244002002F078FC2846BDE89D
:106E7000F08198F80310002002F060FC2846BDE87D
:106E8000F08100BFE4640020034B4FF4567202FB14
:106E9000003001F07DBC00BFF46400202DE9F0411A
:106EA000044601F0FFFD10B90020BDE8F08101F0BB
:106EB00001FE06460028F7D14FF45673DFF86080D4
:106EC00003FB04F404F124054544284601F0C4FB07
:106ED0000028E9D008EB04073046B97802F01EFC20
:106EE0000028E1D004F54674444428462146402257
:106EF00001F0DEFBB978054678B1034622463046FC
:106F000002F02CFC38B94FF0E023D3F8F03DDB075A
:106F1000CAD500BEC8E72846C7E702F00FFCC3E7A2
:106F2000E464002038B50C4C4FF4567303FB004466
:106F300092B20546204601F065FC034620461C46F9
:106F400001F08AFB3F2801D8204638BD2846FFF7CC
:106F5000A5FF204638BD00BF0865002008B5044BDA
:106F60004FF4567202FB003001F090FB08BD00BFE9
:106F70000865002070B51B4C002682B031464FF4E6
:106F80005672204609F023FDFF214FF442400125AF
:106F900061710096E08008202B4604F138012073CF
:106FA0004FF48072258104F1100001F021FB2B4683
:106FB0004FF4807204F59C71009504F1240001F0F7
:106FC00017FB04F50E71284606F074F904F52271DA
:106FD00003462846C4E9076306F06CF9C4E90C06C9
:106FE00002B070BDE464002010B5094B002203F12B
:106FF000240403F110001A601A7101F0B3FC20465A
:1070000001F0B0FC20460121BDE8104001F0CABCEF
:10701000E46400202DE9F0414B79022B82B004D0CA
:107020000025284602B0BDE8F0818B79022BF7D10C
:10703000324FBB78002B45D18B783B700B78CC1846
:107040000646617824294FF009050BD1082A02D899
:1070500021E0AA421FD323781C442B4461782429C1
:107060009DB2F6D0052935D0042914D163790A2BB5
:1070700011D1234B94F80080019301330093022334
:10708000304604EB08011A4602F0A8FAD0B10E35DA
:1070900018FA85F5ADB21B4801F0F8FA3F28C0D9BF
:1070A000F978002002F03AFB0028BAD0154801F028
:1070B000EDFA3F281CD9144AF9784023002002F049
:1070C0004DFBAEE74FF0E023D3F8F03DDB07A7D54B
:1070D00000BEA5E72146304602F0FCFA0028F1D0B8
:1070E000A3787B7023781C442B4461789DB2BBE766
:1070F000F978002002F022FB93E700BFE46400204F
:10710000E6640020F4640020BC67002038B51378E2
:1071100003F06003202B10D19446284ABCF80430B9
:1071200092F800E09E4508D19CF80130203B032BEB
:1071300003D8DFE803F00A161E04002038BD012939
:107140002FD0032931D0012038BD01290BD00329CC
:10715000F9D11B4B002BF6D01A490020AFF3008069
:10716000F1E70129EFD1174A0723614602F080FBBE
:10717000E9E7012915D00329E5D1BCF802401248FE
:10718000147104F0010585F0010101F00BFC0F4BB7
:10719000002BD8D0C4F3400229460020FFF75CFA48
:1071A000D1E7614602F04CFBCDE7094B002BCAD07A
:1071B000BCF802100020AFF30080C4E7E4640020B4
:1071C00000000000EA640020086500205966020003
:1071D000000000002DE9F047434FFA780C46A24228
:1071E000B97806461D4644D0A1421BD04FF0E0239B
:1071F000D3F8F03DDB0700D500BE0020BDE8F087E6
:107200003A4B23B13A4801F037FA002863D03848A6
:1072100001F03CFA3F2805D9F978002002F07EFA07
:1072200000284CD1BB78A34202D00120BDE8F087F2
:10723000304B13B10020AFF300800020FFF72EFE8B
:107240000028F2D12C4801F007FA0028EDD1002DDA
:10725000EBD015F03F05E8D1B978304602F05EFA80
:107260000028E2D0B9782B462A46304602F076FA5A
:10727000DBE79AB207F5367107F1100001F0C2FAA8
:107280001E4B002BBCD07B79FF2BB9D0002DB7D083
:1072900007F2D72808EB050AA8F2C72902E0C24581
:1072A000AED07B7918F8012F9A42F8D1484601F008
:1072B000E3F90028F3D17979AFF30080EFE70C48C8
:1072C00001F0E4F93F2809D90D4AF978402300205C
:1072D00002F044FAA6E7AFF3008098E7F9780020BF
:1072E00002F02CFA9EE700BFE464002000000000DA
:1072F000F464002000000000086500200000000089
:10730000BC67002002488C22002109F060BB00BF4E
:107310003C68002002488C22002109F058BB00BFC5
:107320003C680020F0B54B79032B83B003D00025D7
:10733000284603B0F0BD91F804C0CCEBCC05123563
:10734000ADB295420C4609D8214F7A7832B92178EE
:10735000621892F801E0BEF1210F07D04FF0E02350
:10736000D3F8F03DDA07E2D500BEE0E7C7F88820A1
:10737000615C1144624607F1010CCDF804C007F1CD
:10738000020CCDF800C0064602F028F90028E5D02E
:10739000A379B978012B04BFE379FB7001233B711A
:1073A000D7F88830A278B3F807303A70FB8000290C
:1073B000BED0084A4023304602F0D0F90028B7D1A9
:1073C0004FF0E023D3F8F03DDB07B1D500BEAFE7C7
:1073D0003C68002084680020F0B51446127802F062
:1073E0001F0CBCF1010F83B002D0002003B0F0BD30
:1073F0006C4EB4F804C033785FFA8CFC6345F4D16A
:1074000012F06002054603D1012921D00120EDE7E9
:10741000202AEAD16378013B0A2BE6D801A252F870
:1074200023F000BF0B750200FB740200EB74020036
:10743000EB730200EB730200EB730200EB730200CC
:10744000EB730200B57402009374020077740200BB
:10745000617863880629C8D11B0A212B7FD0222B93
:10746000C3D11046FFF7E8FAF388024621462846C2
:1074700002F0FEF9CAE7012917D00329C6D16188B5
:10748000494BC9B23171002BC0D00020AFF300804E
:10749000BCE70129BAD16188444B090A717123B153
:1074A0000020AFF3008000289FD02146284602F03C
:1074B000C7F9ABE701295ED00329A7D16388E48827
:1074C000402C204628BF402013F0FF014FEA132232
:1074D00005D0012C03D996F848308B425DD0344B4F
:1074E00000900020FFF7C6FA90E701298ED10B46E5
:1074F000304A214602F0BCF988E7012986D10B46C3
:107500002D4A214602F0B4F980E701297FF47EAFCD
:10751000B4F806E063887746402F28BF402713F071
:10752000FF004FEA13222FD0BEF1010F2CD907F133
:10753000FF3C224B30721FFA8CF70E460146009733
:107540000020FFF781FA33189BB203BB4FF0E02312
:10755000D3F8F03DDB077FF548AF00BE45E7D6F82E
:107560008820002A3FF441AF1378214603B0BDE8DC
:10757000F04002F07DB9E388402B3FF636AF0C4A6D
:10758000214602F075F941E70D4B0026D6E70C4A7B
:107590002146284602F06CF938E70138094B80B2E1
:1075A0009EE700BF3C6800200000000000000000D3
:1075B0008468002040680020416800204568002061
:1075C000446800208568002070B5184DAA786C7852
:1075D0008A4282B014D08C4208D04FF0E023D3F816
:1075E000F03DDB0700D500BE002007E0104A22B1C5
:1075F00010499AB20020AFF30080012002B070BDA4
:107600009442F3D000229CB21146064605F148038D
:1076100010460094FFF72EFAA978402305F148029E
:10762000304602F09BF80028E7D1D6E73C680020FE
:10763000000000004468002070B500F124050446F5
:10764000284601F009F808B9002070BD61780020D3
:1076500002F064F80028F7D004F506763146284693
:10766000402201F025F86178054668B103463246AC
:10767000002002F073F850B94FF0E023D3F8F03D4A
:10768000DB07E1D500BEDFE702F058F8DCE728466B
:1076900070BD00BF30B5164C83B0002529464FF4AD
:1076A0001672204609F093F904F138010123802273
:1076B000009504F1100000F09BFF8022012304F1EB
:1076C000B801009504F1240000F092FF04F59C71CC
:1076D000012005F0EFFD04F5C47103460120C4E963
:1076E000075305F0E7FDC4E90C0503B030BD00BF4A
:1076F000C868002010B5084C002304F11000C4E94C
:107700000033C4E9023301F02DF904F12400BDE88F
:10771000104001F027B900BFC86800202DE9F043F0
:107720004B79012B83B004D00025284603B0BDE877
:10773000F0838B79012BF7D1CB79002BF4D191F821
:1077400000C001EB0C040646617824290CD1944555
:1077500002D9E9E76245E7D323781C4463446178A2
:1077600024291FFA83FCF5D00429DDD16379012B8C
:10777000DAD1A379032BD7D1E379002BD4D1DFF869
:10778000C88098F8013098F8029013B9B9F1000F49
:1077900007D04FF0E023D3F8F03DDB07C4D500BE9F
:1077A000C2E7A37888F800302778217907EB0C0529
:1077B000ADB2274431B923E03B7889451D441F44CD
:1077C000ADB21DD2AA421BD37B78052BF4D139462A
:1077D0003046019201F07EFF019A0028D9D0BB7893
:1077E000D90914BF88F8013088F802303B78217934
:1077F00009F101091D445FFA89F91F44ADB2DBE7C5
:107800000F4800F043FF3F288FD998F8021000205E
:1078100001F084FF002888D0094800F037FF3F2896
:1078200007D9084A98F802104023002001F096FF7B
:107830007BE798F80210002001F080FF75E700BF99
:10784000D8680020A06A0020C86800200020704787
:1078500070B52C4C1D46A37862788B420AD08A42C0
:107860001BD04FF0E023D3F8F03DDB0700D500BE7E
:10787000002070BDAAB204F5EC7104F1100000F014
:10788000C1FF214B13B10020AFF300801F4800F06F
:10789000FDFE3F281FD8012070BD06462046FFF799
:1078A000CBFE0028F7D104F1240000F0D5FE00281B
:1078B000F1D1002DEFD015F03F05ECD161783046C5
:1078C00001F02CFF0028E6D061782B462A4630468E
:1078D00001F044FFDFE7A178002001F01FFF00283E
:1078E000D9D00A4800F0D2FE3F2806D9084AA1782C
:1078F0004023002001F032FFCDE7A178002001F005
:107900001DFFC8E7C868002000000000D8680020FC
:10791000A06A002030B5344CE28AA36887B00546DF
:1079200022B152BA92B2B3FBF2F292B2A06BD4F887
:1079300011101B1AB3F5007F28BF4FF4007300939A
:1079400009BAB0FBF2F302FB13021944607B274B28
:10795000FFF74CF9011E1DDB94F82E4009D08BB2C5
:10796000224A2146284601F0F9FE002833D007B00C
:1079700030BD072303A8CDF80E10ADF812108DF816
:107980000C508DF80D308DF81040059101F056FD2A
:1079900007B030BD43F60221A268A36BA187002186
:1079A00084F83E100121D31A84F82C100221A3621E
:1079B00084F83010002ADAD0002BD8D0237BDB09E2
:1079C00014BF94F82E1094F82F10284607B0BDE885
:1079D000304001F007BF4FF0E023D3F8F03DDB0764
:1079E000C5D500BEC3E700BF206D0020206B00207E
:1079F00038B5224B224C05461BB1607BFFF732F9AC
:107A0000C0B1A16BA3681F4A5B1AB3F5007F28BF02
:107A10004FF4007394F82F109BB2284601F09EFE9D
:107A200000B138BD4FF0E023D3F8F03DDB07F8D5C7
:107A300000BE38BD42F20771A268A36BA187012185
:107A4000D31A84F82C10022184F83E00A36284F833
:107A50003010002AE5D0002BE3D0237BDB0906D0D1
:107A600094F82E102846BDE8384001F0BBBE94F8CB
:107A70002F102846BDE8384001F0B4BE656C020006
:107A8000206D0020206B0020044880F83C1080F816
:107A90003D2080F83E300120704700BF206D00205F
:107AA00002484022002108F092BF00BF206D002054
:107AB00002484022002108F08ABF00BF206D00204C
:107AC0004B79082B01D0002070478B79062BFAD117
:107AD000CB79502BF7D1162A07D84FF0E023D3F8F3
:107AE000F03DD907EFD500BEEDE730B5184D8B78E6
:107AF00085F82D300B7883B005F12E0219440192E0
:107B0000022305F12F0200921A46044601F066FD99
:107B100048B94FF0E023D3F8F03DDA0700D500BEB6
:107B2000002003B030BD002285F8302095F82F10DA
:107B30001F2320462A4601F011FE08B11720F0E766
:107B40004FF0E023D3F8F03DDB07F7D500BEF5E7B3
:107B5000206D0020012901D00120704770B51378F5
:107B6000144603F07F02022A82B005462FD003F0AC
:107B70006003202B0CD16378FE2B0CD0FF2B07D198
:107B800063882BB9B4F806C01FFA8CF3002B3BD0E6
:107B9000002002B070BD6388002BF9D1E288012A71
:107BA000F6D1394B8DF80720002B3BD0FEF778FF3C
:107BB0000028EDD0431E5FFA83FC01230DF107027C
:107BC000214628468DF807C001F052FE19E0627880
:107BD000012ACCD16388002BDAD12C4EA38896F8E9
:107BE0003020042ADBB237D096F82E1099421BD0F1
:107BF00096F82F409C4204D11AB9214601F0E4FDC9
:107C000070B3012002B070BD204A21462846C2E967
:107C10000D3382F83030A2F83CC082F83E3001F0DB
:107C20000FFEEEE79C46C8E7022AEAD1B26BB368C2
:107C30009B1A0322B36286F830200D2306F120023E
:107C400001F08CFD0028DCD14FF0E023D3F8F03DAB
:107C5000DB079DD500BE9BE7194601F0C3FDD0E7C9
:107C60002146284601F0DEFD0028CAD1002386F80F
:107C70003030064A96F82F1028461F2301F06EFD7B
:107C80000028BED1E0E700BFA16A0200206D0020FD
:107C90002DE9F041A04C94F83050012D8EB00746EC
:107CA0001E4671D0032D47D035B1022D00F08C80D7
:107CB00001200EB0BDE8F08194F82F308B42F7D14F
:107CC0001F2E40F0A080954B22689A4240F09B8086
:107CD000934B23626368E27B6362012384F8303054
:107CE000A368A562282AC4E90D3584F82C5000F059
:107CF000E2802A2A00F0D482002B00F01981207B38
:107D0000C00940F01581B3F5007F40F211830122D4
:107D100084F82C2094F83C20A362022084F83000E0
:107D200022B942F20503A38784F83E20384601F0C9
:107D300059FD94F83050B8E794F82E308B42B7D103
:107D40000D2EB5D1E37B282B00F091822A2B00F079
:107D50008682744B23B1607B04F10F01AFF3008086
:107D6000002384F830306C4A94F82F101F233846D3
:107D700001F0F4FC0028DCD14FF0E023D3F8F03D13
:107D8000DB074DD500BE4BE0E37BA26B282B13D065
:107D90002A2B57D0237B3244DB09A26346D0636B86
:107DA00093420ED94FF0E023D3F8F03DDA07C0D567
:107DB00000BE94F8305078E7636B32449A42A26375
:107DC00074D3022384F8303094F82E10384601F032
:107DD00029FD00287FF46CAFA368A26B94F82E10E5
:107DE000934202D9207BC0091CD19B1A032084F83E
:107DF0003000A3624C4A38460D2301F0AFFC002846
:107E00007FF456AFB8E794F82E103846042384F870
:107E1000303001F0E7FC94F82F10384601F0E2FC16
:107E2000002046E7384601F0DDFC41E7A38E3F4ADB
:107E3000607B04F10F01FEF7B9FE0028C0F2ED816E
:107E4000A26BACE7E08A28B140BA80B2A368B3FB6A
:107E5000F0F398B20096D4F81110344DB2FBF0F361
:107E600009BA00FB13221944607B2B46FEF7D6FEAD
:107E70000028C0F22A82864242D9361A002840F0F1
:107E80004382002194F82F30CDF81610072205A860
:107E90000796ADF81A108DF814708DF815208DF82E
:107EA000183001F0CBFA94F83050FEE6FFF732FDBF
:107EB00094F83050F9E6E28A002B00F09F81207B95
:107EC000C00900F05C82002A40F02882012284F878
:107ED0002C20022284F8302094F83C20A36262B95E
:107EE00042F20502A287002284F83E20002B3FF4D4
:107EF0006BAF237BDB093FF419AF94F82E1015E725
:107F0000D4E90D2333449342A363BFF45AAF3846F8
:107F1000FFF76EFD0DE700BF206D00205553424373
:107F20005553425300000000406D0020206B00209C
:107F3000657B252A27D8DFE812F05A0126002600A3
:107F40001C0126002600260026002600260026000A
:107F50002600260026002600260026002600C9004E
:107F60002600260026002600260026002600AE0059
:107F7000EA0026002600260026002600260026000D
:107F800088002600590094F83C20002A40F00C821A
:107F90002846BB4ABB499BB2FEF708FE051EC0F24D
:107FA000CF80002D37D1A368002B3FF40AAFA06B20
:107FB00094F83C2001211B1A84F82C100221A362A2
:107FC00084F8301022B942F20501A18784F83E20DE
:107FD000002B3FF4F9AE237BDB098ED194F82F10F0
:107FE000384601F0FFFB94F830505EE604AA05A97C
:107FF0002846FEF7CDFD059BBDF81020002B00F0B4
:10800000AD81002A00F0AA819D49013B1BBA12BA3A
:10801000C1E900320825A36894F82E10002B40F027
:108020009081A36B94F83C205B420121A362022360
:1080300084F82C1084F83030002A7FF4C5AE42F268
:108040000503A38784F83E20BEE6002305AE059312
:108050000DF10E02C6E90133284604A9FEF798FD8A
:10806000049A002A00F07A81BDF80E30002B00F04F
:10807000758112BA069202225BBA8DF81C20082282
:10808000ADF81E308DF8172096E807007C4B0C25C4
:1080900083E80700BFE7059B7B4A03F4000343F036
:1080A00003030593002A00F08E812846FEF7DAFDCF
:1080B00003469DF8162083F0010363F3C7128DF881
:1080C00016206F4B059A1A600425A4E74FF0203361
:1080D0006E4A05922846CDE90733CDE90A3307A950
:1080E00009930D930C9309AA0DAB1F2505AE0695B8
:1080F000FEF7DEFC0FCEDFF888C1ACE80F000FCE34
:10810000ACE80F003368CCF80030242583E7604BDF
:10811000002B3FF448AFE17C2846C1F3400301F057
:1081200001020909FEF74CFD00287FF43CAF94F8EA
:108130003C302BB943F602220023A28784F83E305C
:10814000A368A26B94F83C1001209A1A84F82C00C2
:108150000220A26284F8300021B984F83E1042F275
:108160000501A187002B3FF42FAE002A3FF42CAE6F
:1081700031E794F83C10B4F83D20DFF804C1DFF893
:108180001CE14FF000034FF0000861F30303CDF84A
:1081900014808DF81630F0238DF814300A23CDF8B2
:1081A0001880CDF82080CDF81C80ADF82020ADF8E7
:1081B00024808DF81B3005AE0FCEACE80F0033687D
:1081C000ACF80030BEF1000F00F0F7802846ACF1AB
:1081D00010014FF40072AFF30080051EA4F83C803C
:1081E00084F83E80BFF6DDAE657B636BD0E6284643
:1081F000FEF7AEFC00287FF4D6AE98E7002A3FF4E5
:10820000E0AD022284F82C2084F8302094F83C2041
:10821000A362002A7FF4D8AD62E6A368A26B94F84B
:108220003C0084F82C50991A0225A16284F8305041
:1082300020B984F83E0042F20500A087002B3FF4ED
:10824000AEAD00293FF4ABAD237BDB0900F091809C
:1082500094F82E10384601F0C5FAA26B9FE50D4B3D
:10826000002B3FF47DAD607BFEF7F0FC78E50A4B18
:10827000002B3FF475AD607BAFF3008070E500BF6D
:10828000206B00202F6D0020656C02000080020230
:10829000C16B02004D6C02000000000000000000F5
:1082A000E28A002BAAD0207BC0097BD1002A68D1AA
:1082B000012284F82C20022284F8302094F83C20FB
:1082C000A362002A3FF40CAE30E5A36BA26843F62C
:1082D0000221A1870021334484F83E100121A363C9
:1082E00084F82C10D31A0221A36284F83010002ADB
:1082F0003FF46AAD002B3FF467AD237BDB097FF4CD
:10830000FCAD94F82F1011E5A36B291813FA80F334
:1083100032462846A36308F040FBB2E552BA92B257
:10832000934233D33846FFF7F5FA94F83050BCE463
:10833000264A9BB2384601F011FA00287FF4F9ACC6
:108340001AE59D4228BF1D46204A6563ABB23846F8
:1083500001F004FA00287FF4ECAC0DE594F83C3011
:10836000002B7FF4EDAE43F60222A28784F83E3064
:10837000E6E694F82F10384601F034FA60E5022260
:1083800097E752BA92B29342BFF4C1AD022284F889
:108390002C2084F8302094F83C20A362002A7FF43B
:1083A000A8AD9DE5022292E50222012184F8302049
:1083B00084F82C10A3621A46D4E6A4F83CE084F8B2
:1083C0003EE0122527E6012373E600BF206B002064
:1083D00030B5154C83B0002529464FF4E67220468F
:1083E00008F0F5FA04F12C01012340220095201D2C
:1083F00000F0FEF84022012304F16C01009504F125
:10840000180000F0F5F804F1AC01012004F052FF6F
:1084100004F1FC0103460120C4E9045304F04AFFBF
:10842000C4E9090503B030BD606D002010B5064CED
:108430002046002340F8043B00F094FA04F11800B1
:10844000BDE8104000F08EBA606D00204B79FF2B24
:1084500001D0002070472DE9F043354F0C78BB78F0
:108460000D46797883B001B91BB1002003B0BDE897
:10847000F08306462879AB783B702C4420B36378B0
:10848000052B0AD0A3189C4202D306E0A34204D9CC
:1084900021780C4461780529F8D1DFF89C80CDF86B
:1084A000048008F10103024600932146022330466E
:1084B00001F094F8A8B1B97895F8049049B97978A1
:1084C000B9B9C9EBC9094C44611B88B203B0BDE816
:1084D000F08308F24B123046402301F03FF90028A8
:1084E000EDD14FF0E023D3F8F03DDA07BDD500BE63
:1084F000BBE7002001F068F906460028E1D10D49EC
:108500004022A1F5BA7000F0D3F803460028D8D075
:108510007978084A304601F021F90028D1D14FF08E
:10852000E023D3F8F03DDB07CBD500BEC9E700BFA1
:10853000606D0020EC6E0020616D002038B5264C87
:10854000A2788A4219D062788A4214D1234A22B191
:1085500099B20020AFF300806178002001F034F977
:10856000054630B91E494022A1F5BA7000F0A0F8C6
:1085700008BB012038BD002038BD9AB204F5A671B1
:10858000201D00F03FF9174B13B10020AFF300801E
:10859000A178002001F018F905460028E9D1124819
:1085A00000F074F83F28E4D9104AA1784023284607
:1085B00001F0D4F8DDE70346094A6178284601F066
:1085C000CDF80028D5D14FF0E023D3F8F03DDB07FC
:1085D000CFD500BECDE700BF606D002000000000D9
:1085E000EC6E002000000000646D0020AC6E0020E6
:1085F0002DE9F041B2F5004F9DF8188029D80446C6
:10860000C06816460F461D4618B14FF0FF3105F001
:108610005FF8206918B14FF0FF3105F059F8C5F344
:108620000E05E0682760002345EAC8356381A6800F
:10863000E580238118B11A46194604F083FC2069AD
:1086400020B100231A46194604F07CFC0120BDE845
:10865000F0810020BDE8F08103894289808892B2D0
:108660009BB2934236BFC2EB40029B1A9B189BB24F
:10867000984228BF184670470289438990B29BB23E
:10868000C01AB0FA80F04009704700BF03894289E0
:10869000808892B29BB2934236BFC2EB40029B1AD3
:1086A0009B189BB2984286BFC01A80B200207047C8
:1086B0002DE9F047064600698846914618B14FF00B
:1086C000FF3105F005F833897489B5889BB2A4B2EF
:1086D000A34236BFC4EB45071F1BFF18BFB2002FD4
:1086E0004DD0BD4243D3B94528BFB946A5421FFA74
:1086F00089F703D8641BA4B2A542FBD9B6F806A03B
:1087000031682B1B9BB2CAF30E029F42924602FBBA
:10871000041126D913FB02F31FFA83F94A46404697
:108720007D1B08F04DFA621912FB0AF2316808EB62
:10873000090092B208F044FA7289B58892B2D3194E
:108740009BB29A421DD96A009B1A9BB23069738111
:1087500020B100231A46194604F0F4FB3846BDE860
:10876000F08707FB02F2404608F02AFAE4E7AB4242
:108770002CBF5B1B5B199CB274812F46B3E77389D6
:108780009BB2B3EB450F4FEA4502DFDBDCE700BFEE
:1087900038B5044600690D4618B14FF0FF3104F0BA
:1087A00097FF21896389A28889B29BB2994236BF1B
:1087B000C3EB4200C81A401880B200B3824209D20B
:1087C00091422CBF891A89188BB29A42638103D8CF
:1087D0009B1A9BB29A42FBD9E2882168C2F30E022F
:1087E000284602FB031108F0EBF90125206920B1AE
:1087F00000231A46194604F0A5FB284638BD054655
:10880000F4E700BF2DE9F04F164683B0002A4CD0A4
:108810000546C068884618B14FF0FF3104F058FF94
:10882000EA792F896B89A988D209BFB29BB240D15E
:108830009F4236BFC3EB4103FB1ADB199BB28B424D
:1088400041D2CB1A9BB29E4228BF1E46B5F806A065
:1088500007EB0609A6EB010BCAF30E0A1FFA89F90A
:108860001FFA8BFB8F423C4603D3641AA4B28C429E
:10887000FBD2091B286889B2B1420AFB04004ED31F
:108880000AFB06F2414608F09BF9AA88B9454FEA6F
:10889000420302D3B9EB420F03DBA9EB03031FFA38
:1088A00083F9E868A5F8089088B9304603B0BDE8B8
:1088B000F08FB5F806A08E42CAF30E0A10D3002935
:1088C00043D10E4600E00026E8680028EDD00023E2
:1088D0001A46194604F036FB304603B0BDE8F08F67
:1088E0009F4236BFC3EB4102FA1AD21992B2480036
:1088F0003244A6EB010B82421FFA8BFB0ADB03EB2F
:1089000001091FFA89F9A9EB0607BFB2BB4219D9C1
:10891000381A87B206EB07091FFA89F9A2E711FB9B
:108920000AF18AB241460192A34408F049F9019A3A
:1089300028681BFB0AFB08EB02011FFA8BF208F008
:108940003FF9A2E7B8428DDCE2E7761A03EB0109B2
:108950000AFB06881FFA89F91F460E464FF0000BE6
:1089600080E700BF10B50446C06818B14FF0FF3172
:1089700004F0AEFE206918B14FF0FF3104F0A8FEFC
:10898000E06800236381238118B11A46194604F078
:10899000D9FA206920B100231A46194604F0D2FA08
:1089A000012010BD38B50446C0680D4618B14FF01F
:1089B000FF3104F08DFE206918B14FF0FF3104F053
:1089C00087FEE379E06865F3C713E37120B1002304
:1089D0001A46194604F0B6FA206920B100231A4657
:1089E000194604F0AFFA012038BD00BFF8B5284F92
:1089F000284C3A78284E054684B30024A31AA24294
:108A0000DBB236D8042B03EB430339D806EBC303A0
:108A10005B68284698473A780134E4B2131DA342B4
:108A2000ECDA1E4B37220021184607F0D0FF4FF03A
:108A3000FF32C0F80320C0F80720C0F80B20C0F8B0
:108A40000F20C0F81320C0F81720C0F81B20C0F872
:108A50001F20A0F82320F8BD052C11D073682846EC
:108A600098473B78013404339C4206F11806F3DD45
:108A7000D7E70B4B1B6804EB440213EBC203C7D1CF
:108A80004FF0E023D3F8F03DDB07E4D500BEF8BD9E
:108A90004470002000000000283103004C700020CA
:108AA00048700020024B5878003818BF01207047EA
:108AB0004C700020024B1878C0F38000704700BF54
:108AC0004C700020024B1878FF3818BF0120704707
:108AD0000C6100202DE9F043394D2B78FF2B83B03A
:108AE00003D0012003B0BDE8F08337220021044603
:108AF000344807F06CFF3449012004F0DBFB334BB2
:108B00001860002848D0324B002153F8042C009103
:108B100033F8061C33F8080C04F0ACF92D4B186040
:108B2000002839D02C4F2D4E002F3ED03046AFF3C9
:108B300000802B4B32781860FFB12A4F4FF00008AD
:108B4000A8EB02034245DBB231D8042B03EB43030D
:108B500022D807EBC3031B689847327808F1010855
:108B60005FFA88F8131D4345EADA20462C7001F0BD
:108B700099F8204601F098F8B3E7DFF86890B84616
:108B800059F8283098473378013704339F4208F169
:108B90000608EADC052FF3D14FF0E023D3F8F03DCF
:108BA000DB0700D500BE00209CE73278C4E70C4B01
:108BB0001B6808EB480213EBC203CCD1ECE700BF03
:108BC0000C6100204C700020306F00202C6F0020C2
:108BD000BC600020806F0020000000004470002076
:108BE00048700020283103002DE9F04FDFF8F092A3
:108BF00099F80030FF2B8DB031D004464FF47A72D3
:108C000000238002A10D06F005FF012838BF0120D6
:108C1000AA4DAB4EDFF8CCB20190671C286800F07B
:108C2000D080019B002C14BF1A46002209A904F031
:108C3000F7FBA0B19DF82530013B072B00F2B8806F
:108C4000DFE803F0869EB690AB4110040A9B0BB19F
:108C50000B989847286804F0AFFE0028DDD10DB0CE
:108C6000BDE8F08F9DF8281001F07F0706EB470064
:108C700000EBD11090F825206FF3000280F825203A
:108C800090F825206FF3820280F82520002F00F055
:108C9000AD808C4AC37C32B18B4A12789342C0F0CB
:108CA00092809B1ADBB2042B00F29580874A03EB7B
:108CB000430302EBC3031F699DF829200B9B9DF81A
:108CC0002400B847C6E733789DF8248043F00103B9
:108CD000337096F825306FF3000386F8253096F848
:108CE00025306FF3820386F8253096F826306FF32F
:108CF000000386F8263096F8263000206FF38203B2
:108D000086F8263000F012FE9DF8283003F060024D
:108D1000602A0BD0402A71D003F01F03012B00F012
:108D2000E380022B00F09880002B75D04FF0E023F9
:108D3000D3F8F03DDF0700D500BE9DF824000021E8
:108D400001F09AF99DF82400802101F095F981E75E
:108D50009DF82400FFF74AFE00F0DEFD9DF8283064
:108D6000B37077E73378D9077FF574AF584B002B92
:108D70003FF470AF3078C0F3C000AFF3008069E714
:108D80009DF82400FFF732FE00F0C6FDBBF1000F96
:108D90003FF460AFAFF300805CE73378DA077FF52C
:108DA00059AF4C4B002B3FF455AFAFF3008051E768
:108DB0004FF0E023D3F8F03DDB077FF54BAF00BE6B
:108DC00048E7224632E7444A126803EB430312EBBA
:108DD000C3037FF470AF4FF0E023D3F8F03DD80722
:108DE0007FF53DAF00BE0DB0BDE8F08F0B9B9DF849
:108DF00029209DF8240000F0ABFD2BE73748002820
:108E00009BD000F093FD40460AAA0121FDF78CFF9C
:108E100000287FF41FAF90E7202A00F09F80002AEF
:108E200084D19DF82930092B80D801A252F823F073
:108E3000999002007D9002002D8D02006190020049
:108E40002D8D020047900200BB9002002D8D020084
:108E5000319002000B9002009DF82C1001F07F076A
:108E6000082F3FF663AF06EB470303EBD11315481A
:108E7000DB7C7F004FEAD11C30B11348007883427D
:108E8000C0F0B680181AC3B2042B00F28B800F48D2
:108E900003EB430300EBC30A002A00F08780DAF8F3
:108EA0000C0000F043FDDAF80C3040460AAA01211C
:108EB000984700287FF4CEAE3FE700BF806F0020C8
:108EC0004C70002000000000447000202831030096
:108ED000000000000000000048700020296D020022
:108EE0000C610020000000009DF82C300F2B3FF695
:108EF00024AF3344AE4ADB782AB1AE4A12789342AB
:108F00006ED39B1ADBB2042B3FF617AFAA4F03EBCD
:108F1000430307EBC307F86800F008FDFB680AAAE3
:108F200001214046984700287FF494AE9DF82830F0
:108F300013F060077FF401AF9DF829300A3B012B45
:108F40003FF6FBAE00F0F2FC9DF829300A2B00F052
:108F50008A810AA9404600F073FC7BE69DF82C301C
:108F60000F2B3FF6EAAE3344914ADB7832B1914A97
:108F700012789342C0F05B819B1ADBB2042B3FF660
:108F8000DCAE8D4F03EB430307EBC307F86800F03B
:108F9000CDFCFB6840460AAA0121984700287FF4CF
:108FA00059AECAE6002A7FF4C8AE92469DF8292041
:108FB00002F0FD03012B00F00981002A7FF4B6AE18
:108FC000F3196344404693F82530C3F34003ADF8EA
:108FD00022300DF1220202230AA900F049FC39E6F1
:108FE000764A176803EB430317EBC30793D1A4E654
:108FF0007248006803EB430300EBC30A002AD5D094
:10900000BAF1000F7FF44BAF97E673789DF82AA072
:109010009A4506D07378002B7AD1BAF1000F40F050
:109020002C8140460AA986F801A000F009FC11E64F
:1090300073788DF82230404601230DF122020AA9EF
:1090400000F016FC06E60AA800F076FC9DF82A104F
:10905000404600F02FFE337843F002033370F9E509
:10906000BDF82A30012B7FF468AE3378404643F0D8
:1090700008030AA9337000F0E3FBEBE5BDF82A30E2
:10908000012B7FF45AAE337840466FF3C3030AA92D
:10909000337000F0D5FBDDE53278022322FA03F1CC
:1090A0001940C2F340120A43ADF8222040460DF1A8
:1090B00022020AA900F0DCFBCCE5BDF82A00030A75
:1090C000013B020AC0B20E2B3FF637AE01A151F8A8
:1090D00023F000BF4F910200239102008D91020006
:1090E0003B8D02003B8D020067910200239102003C
:1090F0003B8D02003B8D02003B8D02003B8D020048
:109100003B8D02003B8D02003B8D02009D910200D1
:10911000404600F075FEB7784046FFF767FCB77031
:109120007BE7022A00F06581254B002B3FF405AE5A
:10913000AFF300800246002A3FF4F8AD5388404662
:109140000AA900F095FB00287FF484ADF5E5FDF752
:1091500035FC122302460AA9404600F089FB00288C
:109160007FF478ADE9E5174B002B3FF4E6ADAFF3A4
:109170000080024600283FF4E0AD137840460AA97B
:1091800000F076FB00287FF465ADD6E5BDF82C1025
:10919000FDF71EFC02460028EFD1CEE50A4B002B5E
:1091A0003FF4CBADFDF7BCFD02460028C6D1BDE5BE
:1091B00000000000447000202831030048700020A7
:1091C0000000000000000000216D0200BDF82A3000
:1091D0005BB93744012A99F80000674430D097F80A
:1091E00025309A0707F1200716D5BAF1000F3FF492
:1091F00031ADDAF80C0000F099FBDAF80C300AAA6D
:10920000012140469847002000F090FB96F8263058
:10921000DB073FF51FAD9CE600F02EFF7B7943F0A6
:1092200002037B717B7943F001037B71DDE77B4AAD
:10923000176803EB430317EBC3077FF4A7AE7CE586
:1092400097F82520920707F12007CED5029300F06A
:1092500037FF7A79029B63F341027A717A7963F37B
:1092600000027A71C1E70AA9404601230DF12202EA
:109270008DF8227000F0FCFAECE40AF1FF30C0B285
:10928000FDF7A0FB0346002858D04278022A55D1AA
:10929000C1793078C1F340121201C1F3801120F07E
:1092A000300042EA4112024332705A88CDF80C80F5
:1092B0009A18049203F10907CDF814A00294049BB4
:1092C000BB4240F29E807B780B2B03BF3B7897F824
:1092D0000380FF184FF001087B78042B2DD1049BED
:1092E000DA1B4F4B18784F4B92B283B300233946A9
:1092F0001C461F46A4EB000AA0425FFA8AFA70D807
:10930000BAF1040F0AEB4A0A17D8474B03EBCA0A13
:10931000DAF808300398CDE9061298470828DDE905
:10932000061204F1010301D9824266D2DCB23C4B41
:109330001878031DA3422746DCDA029C4FF0E02395
:10934000D3F8F03DD9077FF5F1AC00BEEEE4364B23
:10935000344C39461F46052CBA46EED0BB680398FC
:10936000CDE9061298470828DDE9061207F118072B
:1093700001D9824206D22A4B1B78013404339C4225
:10938000E9DDDAE70F46E3B2B8F1010F0BD1DAF805
:10939000082026498A4208BF4FF0020824498A4221
:1093A00008BF4FF002084FF0000C07E0B9780A44FC
:1093B00056FA82F2D178FF29BFD1D3705FFA8CF2CE
:1093C00090450CF1010CF1D8394602460744194882
:1093D00001F040FC124B1B780433A342BFF66FAF81
:1093E000ABE70E4B1B6804EB440013EBC00A8FD1B4
:1093F000A3E7FDF7E7FA02469DE623463C460F4603
:10940000C2E70D4BDDF80C80DDF814A0029C002BA8
:109410003FF407AEAFF3008003E600BF48700020C2
:109420004470002000000000283103001570020085
:109430001D7702005F700020000000002DE9F0435E
:109440004378023B85B005468946032B00F2B28083
:10945000DFE803F0394E1802594B1A78D1072FD59F
:109460001A7858496FF3820208681A70B9F1000F30
:1094700015D14B464FF0FF32294605B0BDE8F04309
:1094800003F060BD4E4B1A78D00719D51A784D49B4
:1094900042F0040208681A70B9F1000FE9D0002305
:1094A00001AA2946019303F03BFF019B43B1464BC0
:1094B0004FF080525A6040BFBFF34F8FBFF36F8FA2
:1094C00005B0BDE8F0833E4A11786FF300011170DA
:1094D000117800236FF3410111705370117863F319
:1094E00082011170374A1068B9F1000FD8D1C0E776
:1094F000364E374C33780CB3364FDFF8DC8000241F
:1095000010E0042A09D802EB420207EBC2025269BA
:109510001AB169682878904733780134E4B21A1D8B
:10952000A2421DDBE21AA342D2B2EAD9D8F8002047
:1095300004EB440112EBC102E9D1EEE7254F04EB45
:109540004402042C07EBC20205D852691AB16968BB
:109550002878904733780134E4B21A1DA242EEDA3B
:10956000174B1A785207ABD51A786FF382021A702C
:10957000144A297810688DF8041000230522CDF8CC
:109580000630CDF80A30ADF80E308DF80520B9F16F
:10959000000F06D14B464FF0FF3201A903F0D2FC79
:1095A0008EE76A4601A9009303F0BAFE009B002BE8
:1095B00086D07CE7034B186800297FF470AF58E72A
:1095C0004C700020806F002000ED00E0447000200F
:1095D0000000000028310300487000202DE9F84FFA
:1095E000DDF82880002A41D0224FDFF88C900C460D
:1095F0001E4615464FF0000B17E099F8021001F0D7
:10960000F7FA034621465046FBB100F069FB18B358
:10961000A378DA0916BF0B9A88F800301370237804
:109620000BF1010BAB451C4420D06378052B204681
:1096300012D1E17801F00301B1420DD1A37897F87E
:1096400000A003F07F03082BD7D94FF0E023D3F815
:10965000F03DDA0700D500BE4FF0E023D3F8F03D2F
:10966000DB0700D500BE0020BDE8F88F0120BDE873
:10967000F88F00BF0C6100204C70002010B5134C17
:1096800084B04FF40063CDE901302468039142B9FE
:10969000134601A94FF0FF32204603F053FC04B0FB
:1096A00010BD00236A4601A92046009303F038FE4E
:1096B000009B002BF3D0064B4FF080525A6040BF06
:1096C000BFF34F8FBFF36F8FE9E700BF806F0020BC
:1096D00000ED00E038B58B780E4A03F07F03082BCD
:1096E000157808D94FF0E023D3F8F03DDB0700D51B
:1096F00000BE002038BD084B0C460846997801F0A2
:1097000077FA0028EED021462846BDE8384000F020
:10971000E7BA00BF0C6100204C700020CB09054A5D
:10972000054801F07F01253303EB4103184411681C
:1097300001F014BA2C6F00204C700020CB09054AB0
:10974000054801F07F01253303EB410318441168FC
:1097500001F030BA2C6F00204C70002010B5184C6E
:10976000184801F07F0E04EB4E0404EBD1142034B2
:1097700094F805C000781CF0010F08D04FF0E023EA
:10978000D3F8F03DDA0700D500BE002010BD94F8F4
:1097900005C04CF0010C84F805C000F07BFB0028EC
:1097A000F4D1627960F30002627162794FF0E021D6
:1097B00060F382026271D1F8F03DDB07E5D5E3E7A3
:1097C0004C7000200C610020054B01F07F0203EB80
:1097D000420303EBD11191F8250000F0010070471E
:1097E0004C70002010B50D4C01F07F0204EB4204D8
:1097F00004EBD11494F825309B0700D510BD084B1D
:109800002034187800F038FC637943F00203637168
:10981000637943F00103637110BD00BF4C700020F9
:109820000C610020054B01F07F0203EB420303EBC8
:10983000D11191F82500C0F3400070474C70002012
:1098400010B40A4C0A46844608684968234603C394
:1098500011780023C943C4E9023360465DF8044B24
:1098600001F080011A46FFF779BF00BFC4700020E5
:10987000F8B5274E8C46054608684968B260B6467A
:10988000AEE803000021F181BCF80600834228BF46
:109890000346B38190B11C462BB31746D2B196F95B
:1098A0000030402C28BF4024002B28DB194A2346D7
:1098B0002846FFF753FF68B10120F8BD9CF800105F
:1098C000C9430346024601F080012846FFF746FFE0
:1098D0000028F1D14FF0E023D3F8F03DDB0700D5AD
:1098E00000BE0020F8BD31781A4601F08001234601
:1098F0002846FFF733FF0028ECD00120DDE72246A1
:109900003946044807F05CF9024A8021EFE700BFBE
:10991000C470002084700020034B0022C3E90022A1
:10992000C3E902221A617047C4700020014B18611C
:10993000704700BFC47000200346044A596800689D
:10994000134603C30023C2E902337047C4700020EA
:1099500070B53D4C2278C909B1EBD21F82B00646E2
:109960001D4618D04BB14FF0E023D3F8F03DDB0794
:1099700000D500BE002002B070BD344B13B12146AB
:10998000AFF3008023691BB12F4A0321304698476B
:10999000012002B070BD94F90030A068002B05DBF7
:1099A0000028E7D02A492A4607F00AF9E089A16889
:1099B000E388284480B229448342E081A16015D025
:1099C0003F2D13D9A28994F90040131A9BB2402B62
:1099D00028BF4023002C25DB904231D01C4A0021B7
:1099E0003046FFF7BBFE0028D2D1BCE7236923B184
:1099F000154A02213046984758B121780023C943BF
:109A00001A4601F080013046FFF7A8FE0028BFD1BA
:109A1000A9E70146304600F02FFB8021304600F0D8
:109A20002BFBB5E7904208D01A460948019307F08E
:109A3000C7F8074A019B8021D2E780210022CFE7A7
:109A400000210A46CCE700BFC470002000000000DF
:109A50008470002042DF704743DF704744DF704767
:109A600012DF704730B5354ABFF35B8F01460124E2
:109A7000D2E84F3FC2E8404F0028F9D1BFF35B8FD7
:109A8000DBB2002B3DD108292FD02D4801F594736E
:109A9000A2F5907E50F823304D011FFA83FC0EEBA7
:109AA00041135EF80550B3F806E09B88A3EB0E0364
:109AB0009BB2634528BF634601EB810C00EB8C0031
:109AC000C0F80057C0F804371E4B08B243F82040D6
:109AD00003EB8103BFF36F8FBFF34F8F1A498B42A4
:109AE00008D004398B4205D030BD154BD3F8C014D3
:109AF000C80312D5BFF35B8F00231370BFF35B8FD6
:109B000030BD124B12485A68C2F30802003ABDE851
:109B1000304018BF0122FFF7B1BD12F8155C002DCF
:109B2000E8D052F8202CC3F8A027C3F8A4179C64EF
:109B3000BFF36F8FBFF34F8F30BD00BFF8710020B0
:109B400000700240287002405070024000ED00E0BA
:109B5000B99B020010B4154CBFF35B8F0146012284
:109B6000D4E84F3FC4E8402F0028F9D1BFF35B8F02
:109B7000DBB2B3B90A60BFF36F8FBFF34F8F0C4BEB
:109B8000994205D0043B994202D05DF8044B7047DE
:109B90000023BFF35B8F2370BFF35B8F5DF8044B33
:109BA000704704485DF8044BFFF768BDF87100206A
:109BB00050700240559B020030B5344ABFF35B8FB2
:109BC000C1B20124D2E84F3FC2E8404F0028F9D18A
:109BD000BFF35B8FDBB2002B3CD108292ED02C4881
:109BE00001F59473A2F5907E50F823304D011FFAD1
:109BF00083FC0EEB41135EF80550B3F806E09B883A
:109C0000A3EB0E039BB2634528BF634601EB810CB7
:109C100000EB8C00C0F80057C0F804371D4B43F828
:109C2000214003EB8103BFF36F8FBFF34F8F1A49BE
:109C30008B4208D004398B4205D030BD144BD3F889
:109C4000C014C80312D5BFF35B8F00231370BFF39A
:109C50005B8F30BD114B12485A68C2F30802003ABC
:109C6000BDE8304018BF0122FFF708BD12F8155CAF
:109C7000002DE8D052F8202CC3F8A027C3F8A41771
:109C80009C64BFF36F8FBFF34F8F30BDF87100201E
:109C900000700240287002405070024000ED00E069
:109CA000B99B0200704700BF014B80225A60704789
:109CB00000E100E0094B10B4D3F80044D3F80024CD
:109CC000002022434FF48001C3F800245DF8044BC8
:109CD000C3F85801C3F80413704700BF0070024076
:109CE00030B48A78434CB1F804C0C97802F07F00E0
:109CF000430003EBD21304EB0313CCF30A0CA3F8D9
:109D000008C001F00303012B4FEAD2152BD0012329
:109D1000394903FA00F4B5B102308340C1F8043385
:109D2000D1F810352343C1F81035334B42F480711C
:109D3000C3F81825C3F80C15BFF36F8FBFF34F8F0F
:109D4000012030BC704700F10C0C03FA0CF3C1F891
:109D50000433D1F8143500F594702343C1F8143559
:109D600041F82050E1E7082808D04FF0E023D3F86D
:109D7000F03DDB0700D500BE0020E2E7EDB9B4F806
:109D800018311BB11C4B8021C3F81C151A49002344
:109D9000C1F85031D1F8003313F4001308BFC1F8F3
:109DA0005431154B4FF44011C3F80413D3F8141574
:109DB00041F48071C3F81415B7E70F4BB4F80811DC
:109DC0000020C3F82C0111B18021C3F81C150A49E9
:109DD000D1F8003313F4001308BFC1F85431064B17
:109DE0000649C3F80413D3F8101541F48071C3F881
:109DF00010159AE7D870002000700240000820007B
:109E00001E4B80222DE9F041C3F88420BFF34F8F11
:109E1000BFF36F8F1A4D1B4F0D244FF00108002622
:109E20001949A200A4F10A03114408FA03F308FA3D
:109E300004F21343C7F8083328464E6020228E628E
:109E40000134002106F0C3FD142C05F12005E7D1F3
:109E50000E4BC7F808332022C7F81C6500217E622C
:109E60000B48BE6406F0B3FDC7F81485C7F810852B
:109E7000024B80225A60BDE8F08100BF00E100E0A3
:109E8000F870002000700240D06F024000083000DF
:109E9000D871002001F07F00F0B54FEA400C0C466D
:109EA000CF096D490CEBD41C01EB0C1E85B09EF85C
:109EB0000B50002D5AD14FEA0C1C05F0FF0641F85B
:109EC0000C20AEF80660AEF8043098B1002F79D1BE
:109ED00001EB40110123CB72BFF36F8FBFF34F8FA4
:109EE0008B7A002B6AD0CB7A002B67D08F72FFF76A
:109EF000B9FD63E0002B44D1584DD5F88034C3F34D
:109F0000C013BB425CD0BFF35B8F01F590700122A0
:109F1000D0E84F3FC0E8462F002EF9D1BFF35B8F4A
:109F2000DBB2002B40F092802A65BFF36F8FBFF346
:109F30004F8FBFF35B8F81F82031BFF35B8F484BAE
:109F400059680023C1F30801C91A4FF4E06218BF31
:109F5000012101A8CDF80630ADF80A30ADF8042093
:109F60008DF808400393FFF769FA27E04FF0E023EC
:109F7000D3F8F03DDB0702D4002005B0F0BD00BEF1
:109F8000FAE7FFB90123CB72364BBFF35B8F012297
:109F9000D3E84F1FC3E8402F0028F9D1BFF35B8FF0
:109FA000C8B200284DD12D48C264BFF36F8FBFF3F4
:109FB0004F8FBFF35B8F1970BFF35B8F0120DCE71E
:109FC000002BDFD001EB401300EB8002DC8A998A82
:109FD0001D8B920002F1804202F51C32091B89B2EE
:109FE0001C69C2F80046A9421F4C28BF2946C2F886
:109FF000041605B204EB80011A48BFF35B8F0122FF
:10A00000D0E84F3FC0E8462F002EF9D1BFF35B8F59
:10A01000DBB293B944F82520BFF36F8FBFF34F8FA6
:10A02000124B994202D0043B9942C7D1BFF35B8FD8
:10A0300000230370BFF35B8FC0E70D48FFF71EFBE3
:10A04000BCE70C490A48FFF719FBB7E7074908487E
:10A05000FFF714FB73E700BFD870002000700240C8
:10A0600000ED00E0F87100200470024050700240E2
:10A07000559B02004C70024011F07F0008B507D1DB
:10A080000D4B01225A65BFF36F8FBFF34F8F08BD91
:10A090000828F8D0084B41F48072C909C3F8182584
:10A0A000F1D1064B03EB40139A7A002AEBD0997258
:10A0B000FFF7D8FCE7E700BF00700240D87000202F
:10A0C00011F0770F12D00A4B41F48072C3F80C15CF
:10A0D000C3F80C25CA09C3F8181504BF01F594711B
:10A0E00043F82120BFF36F8FBFF34F8F704700BF3E
:10A0F000007002402DE9F04F7F4A0023D2F80003A0
:10A1000087B002F580721D4601261F4620FA03F132
:10A11000CC0709D5116806FA03F429B12543176065
:10A12000BFF36F8FBFF34F8F0133192B02F104027E
:10A13000ECD1E80700F10682704E290508D56E4B78
:10A14000D3F8A83601229BB286F81C21A6F8163156
:10A15000AA021ED5684CD4F81435DB0500F17382D1
:10A16000D4F81035DF0540F1778296F81C31002BCA
:10A1700040F0888203A800234FF440720121CDF8FB
:10A180000E30CDF81230ADF81630ADF80C20FFF7D8
:10A1900055F968021FD5584BD3F8004404F4E06227
:10A1A000E105C3F8002400F13982620510D5524B55
:10A1B0000122C3F808259A65D3F8002312F400128F
:10A1C00008BFC3F854214C4B4FF40012C3F80423CA
:10A1D000A30500F113822F0231D5474BD3F8801429
:10A1E000D3F88444D3F88864D3F88C24D3F89074DB
:10A1F000C9B20020E4B261F3070064F30F2066F3F4
:10A20000174062F31F60D3F89464002267F30702DB
:10A2100066F30F22D3F89864D3F89C3466F31742A0
:10A220004E0663F31F6201D1052C08D04FF4C063C2
:10A23000CDE90330012103A80592FFF7FFF8304B69
:10A240002B40002B40F06C812C4FDFF8AC900024A9
:10A250003E46B846A3464FF4E06A1DE03344DA7A3E
:10A26000002A00F02282DA88A8F8042083F80BB0D4
:10A27000DB88CDF80EB09BB2012103A8ADF80CA08D
:10A280008DF810400593ADF812B0FFF7D7F8013400
:10A29000092C08F1200835D004F10C0325FA03F34A
:10A2A000DA07F4D504EB840209EB8202D8F8003017
:10A2B000D2F8080706EB441113FA80F3C8F800300F
:10A2C000CA8880B210FA82F292B2082C4FEA441384
:10A2D000CA80C3D0B8F808208242BFD1CA88B8F873
:10A2E000041092B29142B9D9002C00F0E7810134F8
:10A2F00008F12008D0E700BF00700240D8700020AD
:10A30000FCFB1F00B64B2B40002B00F0B480B54B7C
:10A31000D3F86C84C3F86C84BFF36F8FBFF34F8F97
:10A3200015F4806400F05481D3F88044D3F880346D
:10A3300083F08003C3F3C013C4F3C0140193DFF8A8
:10A34000A4B2DFF8B4A2DFF8A092002528FA05F243
:10A3500005EB850312F0010F0BEB830306EB4511B0
:10A360004FEA850040F08A80002D00F0D48001354E
:10A37000082D07F12007E9D118F4803F00F02A8169
:10A38000F37A002B40F074810123B37218F4003F7C
:10A390000BD096F82B302BB1F38CB28C9BB29A4237
:10A3A00000F2C381012386F82A3018F4802F0DD0E3
:10A3B00096F84B303BB1B6F84630B6F844209BB225
:10A3C0009A4200F2AE81012386F84A3018F4002F39
:10A3D0000DD096F86B303BB1B6F86630B6F8642015
:10A3E0009BB29A4200F29981012386F86A3018F4F0
:10A3F000801F0DD096F88B303BB1B6F88630B6F89A
:10A4000084209BB29A4200F28481012386F88A302C
:10A4100018F4001F0DD096F8AB303BB1B6F8A6305B
:10A42000B6F8A4209BB29A4200F26F81012386F80D
:10A43000AA3018F4800F0DD096F8CB303BB1B6F8A7
:10A44000C630B6F8C4209BB29A4200F25A8101236A
:10A4500086F8CA3018F4000F0DD096F8EB303BB1F7
:10A46000B6F8E630B6F8E4209BB29A4200F2438197
:10A47000012386F8EA3007B0BDE8F08FD3F808264C
:10A480005FFA82FE3A6902EB0E0CC7F810C0CA8A66
:10A490001EFA82F292B2CA82B1F816E0BA8A1FFAA4
:10A4A0008EFE964522D2C98A521A398BC3F800C64D
:10A4B00092B28A4228BF0A46C3F8042600EB0A017A
:10A4C0000122BFF35B8FD9E84F3FC9E84C2FBCF1A5
:10A4D000000FF8D1BFF35B8FDBB2002B74D140F8D3
:10A4E0000A20BFF36F8FBFF34F8F40E7CB8A9BB239
:10A4F00005930023CDF80E30ADF8123065F07F03E0
:10A500008DF8103001214FF4E06303A8ADF80C3052
:10A51000FEF794FF2BE7002CB0D12037012515E77B
:10A52000314BBFF35B8F1A78BFF35B8F002A40F08B
:10A5300098804FF0E023D3F8F03DD9077FF584AE43
:10A5400000BE81E6274B294E00240127C3F814756D
:10A55000C3F810755C609C629C60DC62DC601C630C
:10A560001C615C635C619C639C61DC63DC611C64FA
:10A570001C625C645C629C64C3F85841D3F800249C
:10A58000D3F800140A43C3F80024D3F80023C3F817
:10A590000823174AC3F8042321464FF49272304629
:10A5A00006F015FA40233383338139464FF4807324
:10A5B00003A8ADF81640CDF80E40CDF81240ADF826
:10A5C0000C30FEF73BFFB8E50A48FFF757F8CEE638
:10A5D0000194B4E6019B002B7FF4D2AED6E600BF17
:10A5E0000004000100700240F8710020D8700020C3
:10A5F0000514C001559B02000470024000234FF473
:10A60000A062012103A8CDF80E30CDF81230ADF8CC
:10A610001630ADF80C20FEF711FFDCE50121C3F880
:10A620002C150023CDF80E30CDF81230ADF81630D1
:10A6300003A84FF48063ADF80C30FEF7FFFE62050F
:10A640007FF5C6ADB3E50820FFF70CFAD4F8103556
:10A65000DC053FF58AAD8DE54FF40013C4F80833EF
:10A6600088E50022BFF35B8F1A70BFF35B8FEBE5C9
:10A67000F388B2889BB29A427FF686AE0020FFF73D
:10A68000F1F983E6B6F81631002286F81C214FF462
:10A69000E061882203A8CDE903129BB20121019059
:10A6A0000593FEF7CBFE019865E54FF0E023D3F864
:10A6B000F03DDB077FF5DFAE00BEDCE62149BFF3EE
:10A6C0005B8F0122D1E84F3FC1E8402F0028F9D12C
:10A6D000BFF35B8FDBB263BBC9F84C20BFF36F8F56
:10A6E000BFF34F8FBFF35B8F0C7008F12008144647
:10A6F000BFF35B8FD0E5072007B0BDE8F04FFFF751
:10A70000B1B90620FFF7AEF9A4E60520FFF7AAF9D4
:10A710008FE60420FFF7A6F97AE60320FFF7A2F9F7
:10A7200065E60220FFF79EF950E60120FFF79AF94F
:10A730003BE605490548FEF7A1FF012208F1200884
:10A740001446A9E5F87100204C700240559B0200A8
:10A7500070B5012884B006D0022800F08A80002855
:10A7600046D004B070BDB94BD3F80025002AF8D00C
:10A770000022C3F80425BFF36F8FBFF34F8FB44996
:10A780008020C1F88400BFF34F8FBFF36F8FD3F8E1
:10A790000013C3F80813C3F80025BFF36F8FBFF38E
:10A7A0004F8F4FF4405103F18D53496803F57723E0
:10A7B00003F2DB53994201AC00F082814FF08043F9
:10A7C00001225A60A34B59680023C1F30801C91A3A
:10A7D0004FF4007218BF01212046CDF80630CDF8A5
:10A7E0000A30ADF80E30ADF80420FEF727FEB8E7CA
:10A7F000964BD3F80025002AB3D14FF480014FF4D3
:10A800000062C3F80813C3F80024BFF36F8FBFF3CF
:10A810004F8F4FF08053D3E94C23082A00F0E78094
:10A820008A4B0122C3F80025BFF36F8FBFF34F8F10
:10A830004FF4405203F18D53526803F5772303F22E
:10A84000DB539A4200F00E814FF08043D3F80C2482
:10A85000D3F80C34D80300F12F814FF0804300224D
:10A86000C3F80021D3F800210192012201991A6056
:10A8700077E7764BD3F80435002B58D1734AD2F8DA
:10A8800000341D05FBD54FF40063C2F80034BFF35C
:10A890006F8FBFF34F8F4FF08053D3E94C23082ABB
:10A8A00057D06A4B6A4D80240122C3F81C45C3F877
:10A8B0000423C5F88441FEF705F9002840F089809B
:10A8C000654E4FF4405500246B68B3421BD04FF0E7
:10A8D0008043D3F80C24D3F80C34D9037BD44FF045
:10A8E0008043D3F80C14D3F80C24D403F9D5C8074B
:10A8F000F7D5564B0122C3F80425BFF36F8FBFF382
:10A900004F8F04B070BD01A88DF80440FFF7A8F880
:10A910009DF804304FF08042002B5FD1D2F80C1428
:10A92000D2F80C34DB03CFD5CB07E2D4CCE74FF41D
:10A930004052494B52689A4200F0CF804FF080431A
:10A94000D3F80C24D3F80C34DB0397D5D60795D570
:10A9500007E7032BA5D8414BD3F8002C002A40F081
:10A96000D08049F27531C3F8001CC3F8142CC3F829
:10A97000001C4FF08053D3E94C23082A91D1032BBC
:10A980008FD8374AD35CBBB1344BD3F8002C002AA4
:10A9900040F0C28049F27531C3F8001CC3F8142D91
:10A9A000C3F8001C4FF08053D3E94C23082A7FF4EE
:10A9B00078AF032B3FF675AF244B40F2E371402292
:10A9C000C3F80018C3F80428BFF36F8FBFF34F8F8D
:10A9D00067E76C6074E7D20781D58AE701A8019424
:10A9E000FFF73CF8019B002B3FF46EAF81E7032B90
:10A9F0003FF616AF1A4AD35CC3B1184BD3F8002CFC
:10AA0000002A40F0968049F275320321C3F8002CE9
:10AA1000C3F8141DC3F8002C4FF08053D3E94C2326
:10AA2000082A7FF4FDAE032B3FF6FAAE0B4BD3F8AA
:10AA3000002C002A6CD149F27532C021C3F8002CD9
:10AA4000C3F8141CC3F8002CEAE600BF00700240F3
:10AA500000E100E000ED00E0DBE5B15100E0064080
:10AA6000A031030001AC002520468DF80450FEF70C
:10AA7000F7FF9DF80430002B52D14FF08043D3F8FC
:10AA80000C24D3F80C34D9033FD44FF440522B4B51
:10AA900052689A427FF4E1AE002320468DF80430DC
:10AAA000FEF7DEFF9DF80430002B3FF4D6AE04B075
:10AAB000BDE87040FEF7CEBFD1073FF552AECCE601
:10AAC00020468DF80420FEF7CBFF9DF80430002BC4
:10AAD0003FF474AEFEF7C0FF74E6002401A88DF8C1
:10AAE0000440FEF7BDFF9DF80430002B3FF426AF75
:10AAF00001A80194FEF7B2FF019B002B3FF4BEAE0C
:10AB00002FE60022C3F8142C33E7D207BDD528E680
:10AB1000C022C3F8142C83E60022C3F8142D41E7A9
:10AB200020460195FEF79AFF019B002B7FF419AE9A
:10AB3000ABE70322C3F8142D6EE700BFDBE5B1518C
:10AB400008B50020FDF7C6FF00B108BD4FF0E023B7
:10AB5000D3F8F03DDB07F8D500BE08BDF8B50378A3
:10AB600013F001041AD103785A070546C3F380078E
:10AB700001D52046F8BD0E4630464FF0FF3102F0B9
:10AB8000A7FD2B7813F001040BD12B785B0709D4B8
:10AB90002B7843F0040301242B7003E000242046AB
:10ABA000F8BD3C4600231A461946304602F0CAF961
:10ABB0002046F8BD70B505460C4620464FF0FF31E3
:10ABC00002F086FD2B78C3F380065B0708D52B784F
:10ABD00013F0010303BF2A7863F382022A70002670
:10ABE00000231A461946204602F0ACF9304670BDE3
:10ABF000C378828803F003000228C2F30A0205D05A
:10AC000003281AD0012807D00020704702291DD040
:10AC1000402A09D801207047022940F2FF3308BFBB
:10AC20004FF480639342F6D24FF0E023D3F8F03D27
:10AC3000DB07E9D500BE00207047022914BF40237E
:10AC40004FF480639342EFD30120E4E7B2F5007F35
:10AC5000E0D0E9E70A44914226D291F801C0BCF164
:10AC6000050F05D091F800C061448A42F5D87047BD
:10AC700000B591F802C00CF07F0E00EB4E0E4FEACB
:10AC8000DC1C0EF80C3091F800C061448A4209D9EE
:10AC900091F801C0BCF1050FEBD091F800C0614400
:10ACA0008A42F5D85DF804FB704700BF674B6849DE
:10ACB0001A6870B501321A60664C0878002222606A
:10ACC00028B165481D68B0F80960AE426FD0634A8C
:10ACD000117800293AD1624D6B89624E40F2E24010
:10ACE00003FB00F001F0CEFF5F4801F06FFF5F4A09
:10ACF0001378C1B23170002B3AD05D4B5D481B78A0
:10AD000000682060002B76D1002865D000231370E6
:10AD1000594B01241C70D5E9002323F07F4301F037
:10AD20007FFC564B1B78002B56D1554B554A1C7057
:10AD30001378002B54D04FF0A0434021C3F80815DE
:10AD40001378B3FA83F35B09137070BD4E491B6827
:10AD5000B1F805009842BED103C9414D00232861D6
:10AD600029754148137005F1100101F0DBFEB3E7CE
:10AD7000464B1B78002B49D1206800282CD03C4B37
:10AD80001B78002BC2D0424A03781278002A47D0A1
:10AD900043F0080303703F4B22681B78002B38D028
:10ADA000137843F00403137020683178B0E7D0F8CB
:10ADB00001002B4C294D0A70A06081B2287828B17F
:10ADC0001868314BB3F80560864232D040F2E24059
:10ADD00001FB000001F056FF2A4A1378002BAAD18C
:10ADE0004FF0A0434021C3F80C151378B3FA83F356
:10ADF0005B09137070BD284B1978052913D81A7890
:10AE00000132D2B21A700028BDD1E5E72348206094
:10AE1000B5E7137823F0040313702068317877E7DF
:10AE200003F0F703B6E70021197011700028AAD1CA
:10AE3000D2E793E80300206121750B482A7004F1E2
:10AE4000100101F06FFE2189C0E700BF847500206A
:10AE500081750020A07500200C72002080750020F4
:10AE6000187200209C750020C8720020897500208F
:10AE700022610020A47500209F7200208D750020A3
:10AE800078750020166100200472002021610020E6
:10AE90008F7500208E750020887500201C610020B1
:10AEA000F8B58B4BD3F8002122B100210122C3F861
:10AEB00000119A60874B1978002940F0D0808448AF
:10AEC000D0F82841002C00F0B980834AC0F828113E
:10AED000127802F0FF0552B9804C21680A7802F01E
:10AEE0000702052A03D14A78222A00F014827C4BFB
:10AEF0001B78002B00F0EB807A4B1A78002A00F0C8
:10AF0000E6801B78754C03F0FF00002B00F08A8070
:10AF1000754923680A789D5C744A1678AE4240F001
:10AF2000D68001287ED00D7856781D446D78AE42CB
:10AF300040F0CD80022875D00D7896781D44AD780C
:10AF4000AE4240F0C48003286CD00D78D6781D4402
:10AF5000ED78AE4240F0BB80042863D00D781679BE
:10AF60001D442D79AE4240F0B28005285AD00D78AC
:10AF700056791D446D79AE4240F0A980062851D023
:10AF80000D7896791D44AD79AE4240F0A080072837
:10AF900048D00D78D6791D44ED79AE4240F09780C7
:10AFA00008283FD00D78167A1D442D7AAE4240F025
:10AFB0008E80092836D00D78567A1D446D7AAE42BF
:10AFC00040F085800A282DD00D78967A1D44AD7A00
:10AFD000AE427CD10B2825D00D78D67A1D44ED7A6F
:10AFE000AE4274D10C281DD00D78167B1D442D7BEC
:10AFF000AE426CD10D2815D00D78567B1D446D7B6B
:10B00000AE4264D10E280DD00D78967B1D44AD7BE9
:10B01000AE425CD10F2805D00978D27B0B44DB7B94
:10B020009A4254D12A4A324D324901230B20C2F8A8
:10B030000002D36013602B700B7020E0D0F80C314D
:10B04000002B44D02A4DC0F80C412B78002B40F047
:10B050004981D0F80034002B39D0204C0FE01C4936
:10B06000234D254F234E1D4C012200201870C1F89E
:10B070000022C1F828012A70C7F8082532701F4E37
:10B080003378002B42D123685A78911CFF291ED8AF
:10B090000F48D0F80C04585423680B44050A5D701F
:10B0A00023680D4D0B4409321549D2B2000C98703B
:10B0B0000A702B78002B40F0F6802B78002B40F0A4
:10B0C0000781104B1B7813B90F4B01221A70F8BD82
:10B0D000001000409D75002092750020A87500208A
:10B0E0008B750020A1720020A0720020A4720020A5
:10B0F0009F720020FC71002000F00140B57200201A
:10B100009D7200208D7500209E720020337803F020
:10B11000FF00002B00F09D80AB4923680F78AB4AFD
:10B1200013F807C01778BC45AED1012800F0918014
:10B1300091F800C057789C449CF801C0BC45A3D14D
:10B14000022800F086800F7892F802C01F44BF7872
:10B15000BC4599D103287CD00F7892F803C01F44D6
:10B16000FF78BC4590D1042873D00F7892F804C0C2
:10B170001F443F79BC4587D105286AD00F7892F8E3
:10B1800005C01F447F79BC457FF47EAF062860D0A0
:10B190000F7892F806C01F44BF79BC457FF474AFA6
:10B1A000072856D00F7892F807C01F44FF79BC4596
:10B1B0007FF46AAF08284CD00F7892F808C01F447B
:10B1C0003F7ABC457FF460AF092842D00F7892F8EF
:10B1D00009C01F447F7ABC457FF456AF0A2838D097
:10B1E0000F7892F80AC01F44BF7ABC457FF44CAF79
:10B1F0000B282ED00F7892F80BC01F44FF7ABC4565
:10B200007FF442AF0C2824D00F7892F80CC01F4472
:10B210003F7BBC457FF438AF0D281AD00F7892F8E9
:10B220000DC01F447F7BBC457FF42EAF0E2810D08D
:10B230000F7892F80EC01F44BF7BBC457FF424AF4B
:10B240000F2806D00978D07B5A18D27B90427FF421
:10B250001BAF012116200027377004F091F95C4BD9
:10B260004FF4B45043F00103984701212970594B22
:10B27000594A5A495A4D1B6812680978286801F0E2
:10B28000CFF9584A1378012BD9B23ED0564A2368D9
:10B290001278002A7FF4F8AE544A29680120107011
:10B2A000534A1160F0E6534B1B78002B3FF405AF77
:10B2B0002368514A1B781178C3F3800399423FF405
:10B2C00006AF4E491370002008704D490B70F4E62C
:10B2D00001F074FD4B4A034600210D20136004F079
:10B2E0004FF9EEE6484B2C701A78002A37D1474DBB
:10B2F0002B78002B40F09A80454B18780028BDE849
:10B30000F84018BF7A2001F0F9B93F4B1770197057
:10B3100001F0BEFCBAE73F4A8E681468A6427FF48B
:10B32000E6AD92888C8994427FF4E1AD4FF48C7243
:10B33000C0F860250122C1F80F50C1F81350C1F8C0
:10B340001750C1F81B50C1F81F5081F823503249E3
:10B350001A700B24C0F80042C1F80425F8BD2F4E26
:10B360002A4D32891C7040F2E24102FB0111012397
:10B370002B482B700A3101F05DFC2A4B164F2A48EE
:10B380004FF0FF321A601E4B124A1C701A4B1C7091
:10B3900033683B60736806F11001C3F31703136051
:10B3A00001F0E4F9717D204801F01F0101F006FC75
:10B3B0001D4801F007FC1C4801F0FCFB39682246DF
:10B3C00001F06EF894E700BFB4720020B87200205C
:10B3D000C031030094750020987500209C750020F2
:10B3E000A4750020917500208D75002078750020CF
:10B3F000A0750020226100208E7500208975002034
:10B400008F7500207C7500208A75002092750020C1
:10B410008C7500201061002000F00140187200209F
:10B42000ADAC020084750020C8720020044B18786F
:10B430000028BDE8F84018BF382001F05FB900BF10
:10B440008B7500202DE9F041DFF8CC815F4ED8F8F4
:10B4500000203378157805F00F05002B40F08E8022
:10B460005B4B1A78002A59D0002434701C70594B59
:10B47000594F1C70594B1C70594B3C701C6001F0AB
:10B4800007FC584A584B127858493470A242584C1D
:10B4900019604FF02700574B207018BF7A22564C86
:10B4A0001C6000F0FDFF4FF0A0434022C3F80C25C4
:10B4B00001210D2004F064F801210C2004F060F853
:10B4C0000121162004F05CF8032D0ED0052D27D0A5
:10B4D000484B454A4649494C1B6812680978D8F8D8
:10B4E00000000125257001F09BF8D8F80020444B9E
:10B4F00002F10901591A022950D99068117B527B37
:10B50000186019713F495A7102200870062038707E
:10B51000BDE8F0410021162004F032B82E4FD3E7E9
:10B5200001F0B6FBD8F80040374ED4F80E00D4F83E
:10B530001620D4F81A30D4F8121035460FC5D4F8B6
:10B540001E002860638C314AAB8000231370304AA0
:10B5500013702B4B04F109029A1A022A2AD9A26805
:10B560001A60617B227B1A71264872895971022107
:10B57000062301703B701AB9BDE8F081144B73E7E4
:10B58000144B01221A7001F019FC224A0346BDE84F
:10B59000F04100211620136003F0F2BF107A517AB7
:10B5A00059701870D17A907A9870D970117B527B4B
:10B5B0001971A7E7227A1A70627A5A70A27A9A7081
:10B5C000E27ADA70227B617B1A71CDE792750020F6
:10B5D0008975002091750020B57200208A750020C1
:10B5E000847500208C75002098750020D6BE898E49
:10B5F0009C75002094750020555555009F720020C1
:10B60000B8720020B4720020187200208F750020DC
:10B610008E7500207C750020A475002010B4194B95
:10B620001A68137803F00303032B0BD0164B1B7817
:10B630002BB11649164B0120002208701A705DF8D4
:10B64000044B7047937873B1012BEFD11149D2F8B5
:10B650000300B2F807C0527A8A710F4AA1F804C0F9
:10B6600008601370E2E7D2F80710D2F803000B4B22
:10B670000B4C03C3B2F80B10527B9A700122198055
:10B680002270D3E7A47500209275002089750020F0
:10B690008875002004720020807500200C72002044
:10B6A0008175002070B501210C2003F0E5FE012119
:10B6B0000D2003F0E1FE0121162003F0DDFE012143
:10B6C0000C2003F05DFF01210D2003F059FF4FF026
:10B6D000A0440121162003F053FF402503234FF41B
:10B6E0000022C4F84C372948C4F808254FF4E1314A
:10B6F000C4F81837C4F80855C4F80855FAF782FF9B
:10B700000A21224801F014FB40F20B1001F062FB09
:10B710001F4A00F10A0340F20B10136001F05AFBBC
:10B720001C4A1D4B1D490A3010601D4AC3F81015F4
:10B73000C3F81425A1F594711A4AC3F8101900260C
:10B74000166001F0A5FA184A18491160184A194BF9
:10B7500012781E70B242184E184B4FF0270018BFD7
:10B760007A223070164E1E6000F09AFE01210D20E4
:10B77000C4F80C5503F004FF01210C2003F000FF76
:10B78000BDE870400121162003F0FABE28630020B6
:10B79000A8750020A475002000F001402811004089
:10B7A0000C1000408475002098750020D6BE898E4C
:10B7B0008C750020927500209C75002094750020E7
:10B7C0005555550008B5044801F024FA034B0022F2
:10B7D00083F8482008BD00BFC872002030720020E6
:10B7E0002DE9F04FD24BD3F8002187B012B10022DF
:10B7F000C3F80021CF4E337803F0FF04002B40F054
:10B800003484CD4B1B78002B68D0CC4B1A78002A9F
:10B8100064D0CB49CB4AD1F800C01C70944500F0ED
:10B820001086C94B9CF801201968ACF10405093257
:10B830000029D2B22846C0F2F7851B68D9B2C3F3FB
:10B8400007230CF8063CBB230CF8071C0CF80A3C39
:10B85000BE490CF8092C00230CF8083C09780CF8B8
:10B86000051CACF10A01002A00F0FF85501E1528C6
:10B8700040F2038602F0FC0EAE442F4657F8040B4C
:10B8800003F07F38434000F07F30404403F08033C2
:10B89000774583EA0003F1D1C3F30720C3F30747D9
:10B8A0001844384400EB1363DFB2930702F0FC0E38
:10B8B0000ED0AEF105039C44604610F8013F3B44B6
:10B8C000DFB20EEB0003A3EB0C039BB29342F4D365
:10B8D000A818077007329E48FAF7C2FD9D4B1A78E8
:10B8E000002A40F0C5843378002B40F033849A4C12
:10B8F00094F84830002B39D0984FDFF87482984D77
:10B90000DFF8689208E0FFF789FE94F84830013BC1
:10B91000DBB284F848304BB33B783BBB98F800303F
:10B9200023BB28682288A1690432043805F048F94D
:10B93000A06901F069FA94F848308A4903F1FF3AA6
:10B94000012BA1F104004FEA8A0207D905F025F87E
:10B9500085494FEA4A02881E05F01FF82B6853F804
:10B96000043C4B45CFD1FFF76DFDCEE7DFF80482F5
:10B97000774D7E4F2846FAF729FD002800F0078111
:10B980002846FAF749FDC0B266386628F2D801A306
:10B9900053F820F071BF020065BF020075B90200C4
:10B9A00075B9020075B9020075B9020075B90200D7
:10B9B00075B9020075B9020075B9020075B90200C7
:10B9C00075B9020075B9020075B9020075B90200B7
:10B9D00075B9020075B9020075B9020075B90200A7
:10B9E00075B9020075B9020075B9020075B9020097
:10B9F00075B9020075B9020075B9020075B9020087
:10BA000075B9020075B9020075B9020075B9020076
:10BA100075B9020075B9020075B9020075B9020066
:10BA200075B9020075B9020075B9020075B9020056
:10BA300075B9020075B9020075B9020075B9020046
:10BA400075B9020075B9020075B9020075B9020036
:10BA500075B9020075B9020075B9020075B9020026
:10BA600075B9020075B9020075B9020075B9020016
:10BA700075B9020075B9020075B9020075B9020006
:10BA800075B9020075B9020075B9020075B90200F6
:10BA900075B9020015BF020075B9020075B9020040
:10BAA0009FBE020093BE020075B9020075B9020084
:10BAB00075B9020075B9020075B902007FBE0200B7
:10BAC00017BE020095BD020089BD020075B90200D3
:10BAD00075B902007DBD0200CFBC02009FBC020010
